{
  "_format": "hh-sol-artifact-1",
  "contractName": "Escrow",
  "sourceName": "contracts/Escrow.sol",
  "abi": [
    {
      "inputs": [
        {
          "internalType": "address",
          "name": "_arbiter",
          "type": "address"
        },
        {
          "internalType": "address",
          "name": "_beneficiary",
          "type": "address"
        }
      ],
      "stateMutability": "payable",
      "type": "constructor"
    },
    {
      "anonymous": false,
      "inputs": [
        {
          "indexed": false,
          "internalType": "uint256",
          "name": "",
          "type": "uint256"
        }
      ],
      "name": "Approved",
      "type": "event"
    },
    {
      "anonymous": false,
      "inputs": [
        {
          "indexed": false,
          "internalType": "uint256",
          "name": "",
          "type": "uint256"
        }
      ],
      "name": "Refunded",
      "type": "event"
    },
    {
      "inputs": [],
      "name": "approve",
      "outputs": [],
      "stateMutability": "nonpayable",
      "type": "function"
    },
    {
      "inputs": [],
      "name": "arbiter",
      "outputs": [
        {
          "internalType": "address",
          "name": "",
          "type": "address"
        }
      ],
      "stateMutability": "view",
      "type": "function"
    },
    {
      "inputs": [],
      "name": "beneficiary",
      "outputs": [
        {
          "internalType": "address",
          "name": "",
          "type": "address"
        }
      ],
      "stateMutability": "view",
      "type": "function"
    },
    {
      "inputs": [],
      "name": "depositor",
      "outputs": [
        {
          "internalType": "address",
          "name": "",
          "type": "address"
        }
      ],
      "stateMutability": "view",
      "type": "function"
    },
    {
      "inputs": [],
      "name": "isApproved",
      "outputs": [
        {
          "internalType": "bool",
          "name": "",
          "type": "bool"
        }
      ],
      "stateMutability": "view",
      "type": "function"
    },
    {
      "inputs": [],
      "name": "isRefunded",
      "outputs": [
        {
          "internalType": "bool",
          "name": "",
          "type": "bool"
        }
      ],
      "stateMutability": "view",
      "type": "function"
    },
    {
      "inputs": [],
      "name": "refund",
      "outputs": [],
      "stateMutability": "nonpayable",
      "type": "function"
    }
  ],
  "bytecode": "0x608060405260405162000d0938038062000d09833981810160405281019062000029919062000204565b3373ffffffffffffffffffffffffffffffffffffffff168273ffffffffffffffffffffffffffffffffffffffff16036200009a576040517f08c379a00000000000000000000000000000000000000000000000000000000081526004016200009190620002d2565b60405180910390fd5b816000806101000a81548173ffffffffffffffffffffffffffffffffffffffff021916908373ffffffffffffffffffffffffffffffffffffffff16021790555080600160006101000a81548173ffffffffffffffffffffffffffffffffffffffff021916908373ffffffffffffffffffffffffffffffffffffffff16021790555033600260006101000a81548173ffffffffffffffffffffffffffffffffffffffff021916908373ffffffffffffffffffffffffffffffffffffffff1602179055506000600260146101000a81548160ff0219169083151502179055506000600260156101000a81548160ff0219169083151502179055505050620002f4565b600080fd5b600073ffffffffffffffffffffffffffffffffffffffff82169050919050565b6000620001cc826200019f565b9050919050565b620001de81620001bf565b8114620001ea57600080fd5b50565b600081519050620001fe81620001d3565b92915050565b600080604083850312156200021e576200021d6200019a565b5b60006200022e85828601620001ed565b92505060206200024185828601620001ed565b9150509250929050565b600082825260208201905092915050565b7f596f752063616e206e6f74206265207468652061726269746572206f6620796f60008201527f75722074686520657363726f7700000000000000000000000000000000000000602082015250565b6000620002ba602d836200024b565b9150620002c7826200025c565b604082019050919050565b60006020820190508181036000830152620002ed81620002ab565b9050919050565b610a0580620003046000396000f3fe608060405234801561001057600080fd5b506004361061007d5760003560e01c8063590e1ae31161005b578063590e1ae3146100c8578063779cd083146100d2578063c7c4ff46146100f0578063fe25e00a1461010e5761007d565b806312424e3f1461008257806328f371aa1461008c57806338af3eed146100aa575b600080fd5b61008a61012c565b005b610094610383565b6040516100a1919061068b565b60405180910390f35b6100b2610396565b6040516100bf91906106e7565b60405180910390f35b6100d06103bc565b005b6100da610613565b6040516100e7919061068b565b60405180910390f35b6100f8610626565b60405161010591906106e7565b60405180910390f35b61011661064c565b60405161012391906106e7565b60405180910390f35b60008054906101000a900473ffffffffffffffffffffffffffffffffffffffff1673ffffffffffffffffffffffffffffffffffffffff163373ffffffffffffffffffffffffffffffffffffffff16146101ba576040517f08c379a00000000000000000000000000000000000000000000000000000000081526004016101b190610785565b60405180910390fd5b600260149054906101000a900460ff161561020a576040517f08c379a0000000000000000000000000000000000000000000000000000000008152600401610201906107f1565b60405180910390fd5b600260159054906101000a900460ff161561025a576040517f08c379a00000000000000000000000000000000000000000000000000000000081526004016102519061085d565b60405180910390fd5b60004790506000600160009054906101000a900473ffffffffffffffffffffffffffffffffffffffff1673ffffffffffffffffffffffffffffffffffffffff16826040516102a7906108ae565b60006040518083038185875af1925050503d80600081146102e4576040519150601f19603f3d011682016040523d82523d6000602084013e6102e9565b606091505b505090508061032d576040517f08c379a00000000000000000000000000000000000000000000000000000000081526004016103249061090f565b60405180910390fd5b7f3ad93af63cb7967b23e4fb500b7d7d28b07516325dcf341f88bebf959d82c1cb8260405161035c9190610948565b60405180910390a16001600260146101000a81548160ff0219169083151502179055505050565b600260149054906101000a900460ff1681565b600160009054906101000a900473ffffffffffffffffffffffffffffffffffffffff1681565b60008054906101000a900473ffffffffffffffffffffffffffffffffffffffff1673ffffffffffffffffffffffffffffffffffffffff163373ffffffffffffffffffffffffffffffffffffffff161461044a576040517f08c379a000000000000000000000000000000000000000000000000000000000815260040161044190610785565b60405180910390fd5b600260149054906101000a900460ff161561049a576040517f08c379a0000000000000000000000000000000000000000000000000000000008152600401610491906107f1565b60405180910390fd5b600260159054906101000a900460ff16156104ea576040517f08c379a00000000000000000000000000000000000000000000000000000000081526004016104e19061085d565b60405180910390fd5b60004790506000600260009054906101000a900473ffffffffffffffffffffffffffffffffffffffff1673ffffffffffffffffffffffffffffffffffffffff1682604051610537906108ae565b60006040518083038185875af1925050503d8060008114610574576040519150601f19603f3d011682016040523d82523d6000602084013e610579565b606091505b50509050806105bd576040517f08c379a00000000000000000000000000000000000000000000000000000000081526004016105b4906109af565b60405180910390fd5b7f3d2a04f53164bedf9a8a46353305d6b2d2261410406df3b41f99ce6489dc003c826040516105ec9190610948565b60405180910390a16001600260156101000a81548160ff0219169083151502179055505050565b600260159054906101000a900460ff1681565b600260009054906101000a900473ffffffffffffffffffffffffffffffffffffffff1681565b60008054906101000a900473ffffffffffffffffffffffffffffffffffffffff1681565b60008115159050919050565b61068581610670565b82525050565b60006020820190506106a0600083018461067c565b92915050565b600073ffffffffffffffffffffffffffffffffffffffff82169050919050565b60006106d1826106a6565b9050919050565b6106e1816106c6565b82525050565b60006020820190506106fc60008301846106d8565b92915050565b600082825260208201905092915050565b7f4f6e6c792041726269746572206861732061636365737320746f20746869732060008201527f66756e6374696f6e000000000000000000000000000000000000000000000000602082015250565b600061076f602883610702565b915061077a82610713565b604082019050919050565b6000602082019050818103600083015261079e81610762565b9050919050565b7f546869732068617320616c7265616479206265656e20617070726f7665640000600082015250565b60006107db601e83610702565b91506107e6826107a5565b602082019050919050565b6000602082019050818103600083015261080a816107ce565b9050919050565b7f546869732068617320616c7265616479206265656e20726566756e6465640000600082015250565b6000610847601e83610702565b915061085282610811565b602082019050919050565b600060208201905081810360008301526108768161083a565b9050919050565b600081905092915050565b50565b600061089860008361087d565b91506108a382610888565b600082019050919050565b60006108b98261088b565b9150819050919050565b7f4661696c656420746f2073656e64204574686572000000000000000000000000600082015250565b60006108f9601483610702565b9150610904826108c3565b602082019050919050565b60006020820190508181036000830152610928816108ec565b9050919050565b6000819050919050565b6109428161092f565b82525050565b600060208201905061095d6000830184610939565b92915050565b7f4661696c656420746f2073656e64206574686572000000000000000000000000600082015250565b6000610999601483610702565b91506109a482610963565b602082019050919050565b600060208201905081810360008301526109c88161098c565b905091905056fea2646970667358221220ba2050e917f22a1764a58279f486e6e035861546eb778b3b1a63ba1484117e9164736f6c63430008110033",
  "linkReferences": {},
  "deployedLinkReferences": {}
}